:020000040800F2
:1000000038070020290200085D0500089D0400084B
:1000100059050008D1020008DB08000800000000B4
:100020000000000000000000000000003106000891
:10003000D502000800000000ED050008890700084F
:10004000430200084302000843020008430200087C
:100050004302000843020008D902000843020008D6
:10006000430200084302000843020008430200085C
:10007000430200084302000843020008430200084C
:10008000430200084302000843020008430200083C
:10009000430200084302000843020008430200082C
:1000A000430200084302000843020008430200081C
:1000B000430200084302000843020008430200080C
:1000C00043020008430200084302000843020008FC
:1000D00043020008F5070008430200084302000835
:1000E00043020008430200084302000843020008DC
:1000F00043020008430200084302000843020008CC
:1001000043020008430200084302000843020008BB
:1001100043020008430200084302000843020008AB
:10012000430200084302000843020008430200089B
:10013000430200084302000843020008430200088B
:10014000430200084302000843020008430200087B
:10015000430200084302000843020008430200086B
:10016000430200084302000843020008430200085B
:10017000430200084302000843020008430200084B
:10018000430200084302000800F002F800F03CF8C7
:100190000AA090E8000C82448344AAF10107DA45E2
:1001A00001D100F031F8AFF2090EBAE80F0013F0F8
:1001B000010F18BFFB1A43F001031847980700000E
:1001C000B8070000103A24BF78C878C1FAD852079F
:1001D00024BF30C830C144BF04680C6070470000C1
:1001E0000023002400250026103A28BF78C1FBD840
:1001F000520728BF30C148BF0B6070471FB500F0E1
:10020000A3FB1FBD10B510BD00F033F81146FFF77A
:10021000F5FF00F085FB00F051F803B4FFF7F2FFA3
:1002200003BC00F05CFB0000094880470948004718
:10023000FEE7FEE7FEE7FEE7FEE7FEE7FEE7FEE796
:10024000FEE7FEE704480549054A064B70470000F3
:100250008D070008890100083801002038070020B8
:1002600038030020380300207047704770477047FC
:100270007047754600F028F8AE46050069465346BB
:1002800020F00700854618B020B5FFF7DBFFBDE87A
:1002900020404FF000064FF000074FF000084FF0ED
:1002A000000B21F00701AC46ACE8C009ACE8C0097E
:1002B000ACE8C009ACE8C0098D4670470446AFF30E
:1002C00000802046FFF7A9FF00487047D4000020B7
:1002D00000BFFEE77047000010B5012000F03EF8B7
:1002E00050B10648006808B9012000E00020034929
:1002F0000860012000F02CF810BD0000A802434265
:100300000EB50121880300F083F90021042000F0DC
:1003100091F90120009000208DF8040008208DF84C
:10032000050001208DF80600684600F023F806203D
:100330008DF8080000208DF8090002208DF80A00D1
:1003400001208DF80B0002A800F00AF90EBD000094
:100350000149086070470000143C0140014600203C
:10036000034A12680A400AB1012000E000207047E9
:10037000143C0140002123498279002A3AD00A46E0
:10038000126803689A430B461A600A1D12680368D4
:100390009A430B1D1A60027911440A6803681A43D4
:1003A0000A60184A0832126803689A43154B0833EA
:1003B0001A601A1D126803689A43124B0C331A60B4
:1003C0004279102A0ED11A1F126803681A430D4B86
:1003D00008331A601A1D126803681A43094B0C335C
:1003E0001A600DE00749427911440A6803681A430C
:1003F0000A6005E0027911440A6803689A430A60BA
:1004000070470000003C0140F0B50A46002100237F
:10041000002400BF3DE0012505FA01F3156805EA57
:1004200003049C4234D105684F000326BE40B54307
:10043000056015794E00B5400668354305601579AD
:10044000012D02D01579022D16D185684F000326A3
:10045000BE40B543856055794E00B540866835434A
:100460008560456801268E40B543456045689679AC
:100470008E40B6B235434560C5684F000326BE4086
:10048000B543C560D5794E00B540C6683543C560F3
:10049000491C1029BFD3F0BD4183704700BFFEE760
:1004A0001CB50120009000208DF804008DF8060096
:1004B00003208DF8050001208DF8070069460448E7
:1004C000FFF7A2FF01210248FFF7E6FF1CBD000075
:1004D000001002401CB50121582000F089F80121CC
:1004E000880300F095F840F60C60009001208DF82C
:1004F000040000208DF8060003208DF8050001207F
:100500008DF8070069461248FFF77EFF40F68C61C0
:100510000F48FFF7C1FF4FF44250009001208DF8C3
:10052000040000208DF8060003208DF8050001204E
:100530008DF8070069460748FFF766FF4FF4425100
:100540000448FFF7A9FF0021084600F073F81CBD1E
:1005500000180240000C024000BFFEE77047000098
:1005600070B5002100230F22C4781CB3174C2468F7
:1005700004F4E064C4F5E064C4F30721C1F10404A9
:10058000E3B20A4144789C40E1B2847814402143AC
:100590000C07210E0E4C05786155047804F01F05F8
:1005A0000124AC4005786D11AD0005F1E025C5F8DA
:1005B000004109E0047804F01F050124AC40054D1A
:1005C0000678761145F8264070BD00000CED00E07D
:1005D00000E400E080E100E002490143024A1160CA
:1005E000704700000000FA050CED00E070470000C5
:1005F00029B1064A12680243044B1A6004E0034A18
:1006000012688243014B1A60704700003038024084
:1006100029B1064A12680243044B1A6004E0034AF7
:1006200012688243014B1A60704700004438024050
:100630007047000030B500228B071C0F0F2303FA10
:1006400004F20B4B8C1053F824309343084C8D105C
:1006500044F8253023468C1053F824308C07240F9F
:1006600000FA04F42343024C8D1044F8253030BDC9
:10067000083801400CB50020019000903448006813
:1006800040F480303249086000BF3148006800F40F
:10069000003000900198401C0190009818B9019812
:1006A000B0F5A04FF1D12A48006800F4003010B135
:1006B0000120009001E0002000900098012846D120
:1006C00023484030006840F08050214940310860A4
:1006D0002048006840F440401E4908601C4808302B
:1006E00000681B49083108600846006840F4004073
:1006F00008600846006840F4A05008601648091FCA
:100700000860081F006840F08070091F086000BF83
:100710000F48006800F000700028F9D040F2057022
:100720000E4908600A480830006820F003000849B4
:10073000083108600846006840F00200086000BF09
:1007400003480830006800F00C000828F8D10CBD00
:10075000003802400070004008544007003C02404E
:10076000042808D14FF0E021096941F004014FF05D
:10077000E022116107E04FF0E021096921F0040156
:100780004FF0E022116170477047000010B5154826
:10079000006840F47000134908601348006840F096
:1007A00001001149086000200F49083108600E4817
:1007B00000680E4908400C4908600D48091D086092
:1007C000081F006820F48020091F086000200649E7
:1007D0000C310860FFF74EFF4FF00060014980398F
:1007E000086010BD88ED00E000380240FFFFF6FE13
:1007F0001030002410B540F225511D4800F03EF89D
:1008000010B31B4800F064F8C4B21A48008800F422
:100810000040C8B91748008800F4804060B10A2C35
:1008200003D000201349088020E01248008840F4DB
:1008300000401049088019E00D2C06D10D480088B1
:1008400040F480400B49088010E00A480088C0F35B
:100850000D0009490C5407480088401C05490880D0
:1008600008460088C72801DD0020088010BD000070
:1008700000100140080000200C00002070B5024666
:10088000002400230025002040F66A16B14200D162
:1008900000BFC1F3421501F01F03012606FA03F35E
:1008A000012D02D19689334006E0022D02D1168A2D
:1008B000334001E0968A33400C12012606FA04F414
:1008C0001688344013B10CB1012000E0002070BD47
:1008D00001468888C0F30800704700BFFEE7014664
:1008E00000BF704710B504466FF00400FFF738FFF3
:1008F000E11704EB5171C1F3C701074A11701046AB
:10090000007800EB4001C1EBC0104FF6FF7101EA27
:10091000C0000249088010BD000000200200002035
:100920004FF4A060FFF758FEA820FFF7DBFFFFF7AA
:10093000D1FDFFF7B5FDFFF7E3FC01200149086099
:1009400000BFFEE7AC0243424FF04070E1EE100AF8
:100950007047000074090008000000200C0000002F
:10096000C4010008800900080C0000202C070000CA
:10097000E00100080000000000000000000000008E
:040000050800018965
:00000001FF
