:020000040800F2
:10000000580900206902000845050008F1030008AE
:100010004105000811030008870A000800000000DD
:10002000000000000000000000000000A105000822
:1000300015030008000000005D0500080107000826
:10004000830200088302000883020008830200087C
:10005000830200088302000883020008830200086C
:10006000830200088302000883020008830200085C
:10007000830200088302000883020008830200084C
:10008000830200088302000883020008830200083C
:10009000830200088302000883020008830200082C
:1000A000830200088302000883020008830200081C
:1000B0008302000809080008830200088302000880
:1000C00083020008830200088302000883020008FC
:1000D00083020008A10900088302000883020008C7
:1000E00083020008830200088302000883020008DC
:1000F00083020008830200088302000883020008CC
:1001000083020008830200088302000883020008BB
:1001100083020008830200088302000883020008AB
:10012000830200088302000883020008830200089B
:10013000830200088302000883020008830200088B
:10014000830200088302000883020008830200087B
:10015000830200088302000883020008830200086B
:10016000830200088302000883020008830200085B
:10017000830200088302000883020008830200084B
:10018000830200088302000800F002F800F05CF827
:100190000AA090E8000C82448344AAF10107DA45E2
:1001A00001D100F051F8AFF2090EBAE80F0013F0D8
:1001B000010F18BFFB1A43F001031847F80A0000AB
:1001C000180B00000A444FF0000C10F8013B13F02C
:1001D000070408BF10F8014B1D1108BF10F8015BA0
:1001E000641E05D010F8016B641E01F8016BF9D193
:1001F00013F0080F1EBF10F8014BAD1C0C1B09D1EA
:100200006D1E58BF01F801CBFAD505E014F8016B5B
:1002100001F8016B6D1EF9D59142D6D370470000ED
:100220000023002400250026103A28BF78C1FBD8FF
:10023000520728BF30C148BF0B6070471FB500F0A0
:1002400033FD1FBD10B510BD00F033F81146FFF7A8
:10025000F5FF00F0A3FC00F051F803B4FFF7F2FF44
:1002600003BC00F012FC0000094880470948004721
:10027000FEE7FEE7FEE7FEE7FEE7FEE7FEE7FEE756
:10028000FEE7FEE704480549054A064B70470000B3
:1002900005070008890100085803002058090020BC
:1002A0005805002058050020704770477047704778
:1002B0007047754600F028F8AE460500694653467B
:1002C00020F00700854618B020B5FFF7DBFFBDE83A
:1002D00020404FF000064FF000074FF000084FF0AD
:1002E000000B21F00701AC46ACE8C009ACE8C0093E
:1002F000ACE8C009ACE8C0098D4670470446AFF3CE
:1003000000802046FFF7A9FF00487047F402002054
:1003100000BFFEE77047F0B50A4600210023002425
:1003200000BF3DE0012505FA01F3156805EA030465
:100330009C4234D105684F000326BE40B54305609A
:1003400015794E00B5400668354305601579012DD5
:1003500002D01579022D16D185684F000326BE40C4
:10036000B543856055794E00B54086683543856054
:10037000456801268E40B5434560456896798E40B4
:10038000B6B235434560C5684F000326BE40B5434D
:10039000C560D5794E00B540C6683543C560491C77
:1003A0001029BFD3F0BDF0B5002300244D07ED0E9A
:1003B00002FA05F3CE1000F1200555F826504E073D
:1003C000F70E0F26BE40B543CF1000F1200646F8C9
:1003D0002750CE1000F1200555F8265045EA0304B9
:1003E000CE1000F1200545F82640F0BD418370474E
:1003F00000BFFEE710B5012000F080F8022000F0F9
:1004000065FB10BD70B505460E461446074901EB65
:10041000C501885D00F072F803E0207800F07FF8F5
:10042000641C20780028F8DC70BD00000A00002061
:100430001CB50121602000F093F8022000900120FB
:100440008DF8040000208DF8060003208DF80500CB
:1004500001208DF8070069461348FFF75CFF022171
:100460001148FFF7C3FF4FF44040009001208DF882
:10047000040000208DF8060003208DF805000120FF
:100480008DF8070069460948FFF745FF4FF44041E2
:100490000648FFF7ABFF0120054908600549C1F890
:1004A000BC02054908601CBD00180240001402404F
:1004B0008402434200804242B882424210B5322058
:1004C00000F004FB302000F019F8012000F0FEFAE3
:1004D000302000F013F8012000F0F8FA0C2000F0B2
:1004E0000DF8012000F0F2FA012000F007F81E20BC
:1004F00000F0ECFA062000F001F810BD10B504463B
:10050000012000F0E3FAF82000F04CF804F0F000CD
:1005100000F048F82107080E00F044F810BD10B5AF
:100520000446012000F0D2FAFA2000F03BF804F073
:10053000F00000F037F82107080E00F033F810BD86
:1005400000BFFEE77047000002490143024A116004
:10055000704700000000FA050CED00E07047000055
:1005600029B1064A12680243044B1A6004E0034AA8
:1005700012688243014B1A60704700003038024015
:1005800029B1064A12680243044B1A6004E0034A88
:1005900012688243014B1A607047000040380240E5
:1005A0007047000070B50546002418E005FA04F015
:1005B00000F0800018B101200A49086002E0002024
:1005C0000849086000200749091F0860052000F05D
:1005D00099FA01200449C1F8B802601CC4B2082C81
:1005E000E4DB70BDBC824242008042420CB5002078
:1005F000019000903448006840F48030324908602F
:1006000000BF3148006800F4003000900198401CA1
:100610000190009818B90198B0F5A04FF1D12A487F
:10062000006800F4003010B10120009001E00020CB
:1006300000900098012846D123484030006840F0DF
:1006400080502149403108602048006840F4404013
:100650001E4908601C48083000681B4908310860C2
:100660000846006840F4004008600846006840F40E
:10067000A05008601648091F0860081F006840F075
:100680008070091F086000BF0F48006800F000700C
:100690000028F9D040F205700E4908600A48083079
:1006A000006820F003000849083108600846006827
:1006B00040F00200086000BF03480830006800F006
:1006C0000C000828F8D10CBD003802400070004032
:1006D00008544007003C0240042808D14FF0E021B4
:1006E000096941F004014FF0E022116107E04FF089
:1006F000E021096921F004014FF0E0221161704707
:100700007047000010B51548006840F470001349A8
:1007100008601348006840F001001149086000209B
:100720000F49083108600E4800680E4908400C491E
:1007300008600D48091D0860081F006820F480202B
:10074000091F0860002006490C310860FFF74EFFC2
:100750004FF0006001498039086010BD88ED00E06D
:1007600000380240FFFFF6FE1030002430B58BB099
:1007700004460D4601210846FFF702FF0121022031
:10078000FFF7EEFE01220A211E48FFF70CFE0122B0
:100790000A211C48FFF707FE4FF4806009900220F1
:1007A0008DF8280003208DF8290000208DF82A00FC
:1007B00001208DF82B0009A91248FFF7ACFDA8B263
:1007C000ADF818000020ADF81A000794ADF820002D
:1007D00006A94FF0804000F0A1F86020ADF80400B9
:1007E0000120ADF806000020ADF8100001A94FF07F
:1007F000804000F041F80121880700F020F80BB09C
:1008000030BD00000004024010B50121084800F08E
:1008100022F838B10748006808B9012000E000203C
:10082000044908600121024800F006F810BD0000EC
:1008300000040040A8024342CA430282704721B12B
:10084000028842F00102028004E002884FF6FE7343
:100850001A400280704730B5024600200023002471
:10086000158A05EA0103958905EA010413B10CB163
:10087000012000E0002030BD70B5002400220023DC
:10088000058C4FF6FF6635400584028C8388848B87
:100890004FF68F752C404FF6FC752C400D882C437D
:1008A0004FF6FF552A408D894FF6FF7606EA05255B
:1008B0002A434D8806EA05252A43154DA84202D051
:1008C000144DA8421DD14FF2FF752A40CD894FF635
:1008D000FF7606EA05252A434FF6FF352A408D8824
:1008E00006EA05252A434EF6FF752B404DF6FF75A7
:1008F0002B400D8A06EA05152B434D8A06EA05159D
:100900002B43838084838D68C563028470BD00009F
:100910000000014000040140C163704700220288CA
:10092000184B98420ED0184B98420BD0B0F1804F24
:1009300008D0164B984205D0154B984202D0154B63
:10094000984204D14FF68F731A404B881A43124BCA
:10095000984207D0114B984204D04FF6FF431A40FB
:100960000B891A4302804B68C3620B880385054BD1
:10097000984202D0044B984201D18B7A038601231E
:1009800083827047000001400004014000040040E1
:1009900000080040000C004000100040001400401F
:1009A00010B540F225511D4800F03EF810B31B4829
:1009B00000F064F8C4B21A48008800F40040C8B9D6
:1009C0001748008800F4804060B10A2C03D0002052
:1009D0001349088020E01248008840F40040104984
:1009E000088019E00D2C06D10D48008840F48040A5
:1009F0000B49088010E00A480088C0F30D0009493F
:100A00000C5407480088401C0549088008460088A7
:100A1000C72801DD0020088010BD00000010014043
:100A2000080000202C02002070B50246002400239C
:100A30000025002040F66A16B14200D100BFC1F384
:100A4000421501F01F03012606FA03F3012D02D11E
:100A50009689334006E0022D02D1168A334001E028
:100A6000968A33400C12012606FA04F416883440A4
:100A700013B10CB1012000E0002070BD0146888850
:100A8000C0F30800704700BFFEE7014600BF704793
:100A900010B504466FF00400FFF71EFEE11704EBEB
:100AA0005171C1F3C701074A11701046007800EB7D
:100AB0004001C1EBC0104FF6FF7101EAC0000249CE
:100AC000088010BD000000200200002070B5044620
:100AD0004FF4077094FBF0F0C6B24FF4077094FB2C
:100AE000F0F100FB114085B205E04FF4077000F013
:100AF0002FF8701EC6B2002EF7D115B1284600F0AF
:100B000027F870BD0146114A12784A434FF0E0239E
:100B10005A6100229A611A46126942F001021A6172
:100B200000BF4FF0E022106900F001021AB100F49A
:100B30008032002AF5D04FF0E022126922F0010243
:100B40004FF0E0231A6100229A61704700000020F4
:100B50000146114A12884A434FF0E0235A610022AD
:100B60009A611A46126942F001021A6100BF4FF001
:100B7000E022106900F001021AB100F48032002A6C
:100B8000F5D04FF0E022126922F001024FF0E0238D
:100B90001A6100229A617047020000201CB50024EF
:100BA000002000900190A820FFF772FFFFF740FCA3
:100BB000FFF784FC4FF4A060FFF7C6FC002140F66D
:100BC000B830FFF7D3FDFFF715FC2DE0002411E04E
:100BD0000120FFF77BFF21464FF08040FFF79CFE8E
:100BE0002146684600F021F86A4600210846FFF7D2
:100BF00009FC641D40F6B8308442E9D3044611E094
:100C00000120FFF763FF21464FF08040FFF784FE8D
:100C10002146684600F009F86A4600210846FFF7B9
:100C2000F1FB641F002CEBD1D0E710B501EB810282
:100C3000520040F6B833B2FBF3F20A23B2FBF3F4EE
:100C400003FB14223032027064224A4340F6B83368
:100C5000B2FBF3F20A23B2FBF3F403FB14223032AB
:100C600042702E2282704FF47A724A4340F6B833B3
:100C7000B2FBF3F20A23B2FBF3F403FB142230328B
:100C8000C27042F210724A4340F6B833B2FBF3F23C
:100C90000A23B2FBF3F403FB142230320271252243
:100CA00042710022827110BD4FF04070E1EE100AD7
:100CB00070470000D40C0008000000202C02000047
:100CC000C4010008540E00082C0200202C0700006C
:100CD00020020008A10021118081828384858687FB
:100CE000909192939495969788898A8B8C8D8E8F0C
:100CF00098999A9B9C9D9E9F521E8307F0437F80EC
:100D000023180C42013B01FF10322015131003FE83
:100D10004403FFC0325840093F301FFFC003FFE0CB
:100D2000148C03F028087FE07C01E003FF4A1501E2
:100D30003606C03F5FC0FFFC60011015021B0F802C
:100D400016FF01FE0F303AEF101A6D89163E03FFB1
:100D5000F19033FFF81C0436FE6A1507FFFC901B68
:100D6000EFFF721C04DB7E6A1587FFFCD01B0FFFB0
:100D70007214046DFC2F07FF8FFFFE50101AE03035
:100D80003BFC10105A90101B1BF8102DCFFFFE805B
:100D90001012F02B040F101CFFFFFADA39106B074A
:100DA000F010190612F82D0203F0201022BA3DFDB2
:100DB000FFFFFC102603FFFFDFB815C1C03FFC1D7D
:100DC0000101E0402A23DFB01D81C03FCE0613E0C1
:100DD000801D7FFFDFA00A24801DCF2341E11C3F3F
:100DE000FF9BEA1683801FC7802321E21C1FFDB6EC
:100DF0001012C3140EE6801B19EC7A33FE2012C3C6
:100E0000140767401A07F643033E12021B03E74725
:100E1000290A428E12066303834B02031013070351
:100E20004008774674248006041A1C121166554542
:100E3000545780121C220E774545745780082A1C8F
:100E4000201C447480635122385D777647543051BA
:040E5000B2100000DC
:040000050800018965
:00000001FF
