:020000040800F2
:10000000680900206902000885050008310400081D
:1000100081050008510300084B0B00080000000098
:100020000000000000000000000000004107000880
:10003000550300080000000015060008A10800088C
:10004000830200088302000883020008830200087C
:10005000830200088302000883020008830200086C
:10006000830200088302000883020008830200085C
:10007000830200088302000883020008830200084C
:10008000830200088302000883020008830200083C
:10009000830200088302000883020008830200082C
:1000A000830200088302000883020008830200081C
:1000B000830200088302000883020008830200080C
:1000C00083020008830200088302000883020008FC
:1000D000830200080D09000883020008830200085B
:1000E00083020008830200088302000883020008DC
:1000F00083020008830200088302000883020008CC
:1001000083020008830200088302000883020008BB
:1001100083020008830200088302000883020008AB
:10012000830200088302000883020008830200089B
:10013000830200088302000883020008830200088B
:10014000830200088302000883020008830200087B
:10015000830200088302000883020008830200086B
:10016000830200088302000883020008830200085B
:10017000830200088302000883020008830200084B
:10018000830200088302000800F002F800F05CF827
:100190000AA090E8000C82448344AAF10107DA45E2
:1001A00001D100F051F8AFF2090EBAE80F0013F0D8
:1001B000010F18BFFB1A43F001031847000C0000A1
:1001C000200C00000A444FF0000C10F8013B13F023
:1001D000070408BF10F8014B1D1108BF10F8015BA0
:1001E000641E05D010F8016B641E01F8016BF9D193
:1001F00013F0080F1EBF10F8014BAD1C0C1B09D1EA
:100200006D1E58BF01F801CBFAD505E014F8016B5B
:1002100001F8016B6D1EF9D59142D6D370470000ED
:100220000023002400250026103A28BF78C1FBD8FF
:10023000520728BF30C148BF0B6070471FB500F0A0
:10024000B7FD1FBD10B510BD00F052F81146FFF705
:10025000F5FF00F005FD00F070F803B4FFF7F2FFC2
:1002600003BC00F074FC00000948804709480047BF
:10027000FEE7FEE7FEE7FEE7FEE7FEE7FEE7FEE756
:10028000FEE7FEE704480549054A064B70470000B3
:10029000A5080008890100086803002068090020FB
:1002A0006805002068050020704710B5431C02E077
:1002B00010F8011B71B18107FAD14FF0013202C869
:1002C0008C1A8C4314EAC211F9D0C01A0A0603D062
:1002D000C01E10BDC01A10BD0A0401D0801E10BD82
:1002E0000902FCD0401E10BD704770477047704730
:1002F000754600F029F8AE4605006946534620F0E1
:100300000700854618B020B5FFF7BCFFBDE82040C8
:100310004FF000064FF000074FF000084FF0000BC1
:1003200021F00701AC46ACE8C009ACE8C009ACE874
:10033000C009ACE8C0098D4670470446AFF30080A1
:100340002046FFF78AFF00000048704704030020A2
:1003500000BFFEE77047F0B50A46002100230024E5
:1003600000BF3DE0012505FA01F3156805EA030425
:100370009C4234D105684F000326BE40B54305605A
:1003800015794E00B5400668354305601579012D95
:1003900002D01579022D16D185684F000326BE4084
:1003A000B543856055794E00B54086683543856014
:1003B000456801268E40B5434560456896798E4074
:1003C000B6B235434560C5684F000326BE40B5430D
:1003D000C560D5794E00B540C6683543C560491C37
:1003E0001029BFD3F0BDF0B5002300244D07ED0E5A
:1003F00002FA05F3CE1000F1200555F826504E07FD
:10040000F70E0F26BE40B543CF1000F1200646F888
:100410002750CE1000F1200555F8265045EA030478
:10042000CE1000F1200545F82640F0BD418370470D
:1004300000BFFEE710B5012000F080F8022000F0B8
:10044000A7FB10BD70B505460E461446074901EBE3
:10045000C501885D00F072F803E0207800F07FF8B5
:10046000641C20780028F8DC70BD00001C0000200F
:100470001CB50121602000F0CFF80220009001207F
:100480008DF8040000208DF8060003208DF805008B
:1004900001208DF8070069461348FFF75CFF022131
:1004A0001148FFF7C3FF4FF44040009001208DF842
:1004B000040000208DF8060003208DF805000120BF
:1004C0008DF8070069460948FFF745FF4FF44041A2
:1004D0000648FFF7ABFF0120054908600549C1F850
:1004E000BC02054908601CBD00180240001402400F
:1004F0008402434200804242B882424210B5322018
:1005000000F046FB302000F019F8012000F040FB1D
:10051000302000F013F8012000F03AFB0C2000F02E
:100520000DF8012000F034FB012000F007F81E2038
:1005300000F02EFB062000F001F810BD10B50446B7
:10054000012000F025FBF82000F0FCF804F0F0009A
:1005500000F0F8F82107080E00F0F4F810BD10B50F
:100560000446012000F014FBFA2000F0EBF804F040
:10057000F00000F0E7F82107080E00F0E3F810BDE6
:1005800000BFFEE77047000070B5002100230F2276
:10059000C4781CB3174C246804F4E064C4F5E06428
:1005A000C4F30721C1F10404E3B20A4144789C403A
:1005B000E1B28478144021430C07210E0E4C0578DB
:1005C0006155047804F01F050124AC4005786D11D5
:1005D000AD0005F1E025C5F8004109E0047804F01C
:1005E0001F050124AC40054D0678761145F82640DC
:1005F00070BD00000CED00E000E400E080E100E0F0
:1006000002490143024A1160704700000000FA05E8
:100610000CED00E07047000029B1064A1268024361
:10062000044B1A6004E0034A12688243014B1A60CB
:10063000704700003038024029B1064A1268024370
:10064000044B1A6004E0034A12688243014B1A60AB
:100650007047000044380240F0B500210022002419
:10066000022500260223324F3F6807F00C0121B11A
:10067000042905D0082937D105E02E4F076036E060
:100680002D4F076033E02A4F3F1F3F68C7F3805666
:10069000274F3F1F3F6807F03F036EB1264FB7FB60
:1006A000F3F7DFF88CC0ACF1040CDCF800C0CCF33D
:1006B000881C07FB0CF40CE01E4FB7FBF3F7DFF8C8
:1006C00070C0ACF1040CDCF800C0CCF3881C07FB54
:1006D0000CF4174F3F1F3F68C7F301477F1C7D0095
:1006E000B4FBF5F7076002E0124F076000BF00BFE0
:1006F0000F4F3F6807F0F0010909104F7A5C076857
:10070000D74047600A4F3F6807F4E051890A0B4F12
:100710007A5C4768D7408760054F3F6807F46041BF
:10072000490B064F7A5C4768D740C760F0BD0000B0
:10073000083802400024F40000127A000C00002067
:100740007047000070B50546002418E005FA04F073
:1007500000F0800018B101200A49086002E0002082
:100760000849086000200749091F0860052000F0BB
:100770002BFA01200449C1F8B802601CC4B2082C4D
:10078000E4DB70BDBC824242008042420CB50020D6
:10079000019000903448006840F48030324908608D
:1007A00000BF3148006800F4003000900198401C00
:1007B0000190009818B90198B0F5A04FF1D12A48DE
:1007C000006800F4003010B10120009001E000202A
:1007D00000900098012846D123484030006840F03E
:1007E00080502149403108602048006840F4404072
:1007F0001E4908601C48083000681B490831086021
:100800000846006840F4004008600846006840F46C
:10081000A05008601648091F0860081F006840F0D3
:100820008070091F086000BF0F48006800F000706A
:100830000028F9D040F205700E4908600A480830D7
:10084000006820F003000849083108600846006885
:1008500040F00200086000BF03480830006800F064
:100860000C000828F8D10CBD003802400070004090
:1008700008544007003C0240042808D14FF0E02112
:10088000096941F004014FF0E022116107E04FF0E7
:10089000E021096921F004014FF0E0221161704765
:1008A0007047000010B51548006840F47000134907
:1008B00008601348006840F00100114908600020FA
:1008C0000F49083108600E4800680E4908400C497D
:1008D00008600D48091D0860081F006820F480208A
:1008E000091F0860002006490C310860FFF74EFF21
:1008F0004FF0006001498039086010BD88ED00E0CC
:1009000000380240FFFFF6FE1030002410B540F220
:1009100025511D4800F057F810B31B4800F00CF9A2
:10092000C4B21A48008800F40040C8B917480088CB
:1009300000F4804060B10A2C03D0002013490880E5
:1009400020E01248008840F400401049088019E077
:100950000D2C06D10D48008840F480400B490880DA
:1009600010E00A480088C0F30D0009490C540748FC
:100970000088401C0549088008460088C72801DD1A
:100980000020088010BD0000001001400800002079
:100990003C02002021B1828942F40052828104E0AD
:1009A00082894DF6FF731A4082817047024600200B
:1009B000B1F5007F00D100BF13880B400BB10120BF
:1009C00000E00020704770B5024600240023002597
:1009D000002040F66A16B14200D100BFC1F34215B3
:1009E00001F01F03012606FA03F3012D02D19689B7
:1009F000334006E0022D02D1168A334001E0968A88
:100A000033400C12012606FA04F41688344013B160
:100A10000CB1012000E0002070BDF0B503460024B9
:100A200000260025002040F66A17B94200D100BF19
:100A30001846C1F3421401F01F06012707FA06F514
:100A4000012C01D10C3004E0022C01D1103000E067
:100A500014301AB107682F43076002E00768AF43FC
:100A60000760F0BD2DE9FF4705460E460024A1466C
:100A700000BFA046B08900B100BF2C8A24F44054C6
:100A8000F08804432C82AC8941F20C608443B08826
:100A900031890843718908430443AC81AC8A24F44A
:100AA0004074B0890443AC826846FFF7D5FD204806
:100AB000854202D01F48854202D1DDF80C9001E04A
:100AC000DDF80890A88900F4004040B109EBC900A6
:100AD00000EB091031684900B0FBF1F707E009EBC2
:100AE000C90000EB091031688900B0FBF1F7642000
:100AF000B7FBF0F004012009642101FB1078A889FC
:100B000000F4004040B1322000EBC800B0FBF1F02F
:100B100000F00700044308E0322000EB08106421D5
:100B2000B0FBF1F000F00F0004432C81BDE8FF871B
:100B3000001001400014014001468888C0F30800FD
:100B40007047C1F308028280704700BFFEE701468C
:100B500000BF704710B504466FF00400FFF78CFE2D
:100B6000E11704EB5171C1F3C701074A1170104638
:100B7000007800EB4001C1EBC0104FF6FF7101EAB5
:100B8000C0000249088010BD0000002002000020C3
:100B900070B504464FF4077094FBF0F0C6B24FF402
:100BA000077094FBF0F100FB114085B205E04FF4B3
:100BB000077000F02FF8701EC6B2002EF7D115B1E5
:100BC000284600F027F870BD0146114A12784A43C2
:100BD0004FF0E0235A6100229A611A46126942F0EE
:100BE00001021A6100BF4FF0E022106900F001021B
:100BF0001AB100F48032002AF5D04FF0E0221269D9
:100C000022F001024FF0E0231A6100229A6170473E
:100C1000000000200146114A12884A434FF0E023A9
:100C20005A6100229A611A46126942F001021A6161
:100C300000BF4FF0E022106900F001021AB100F489
:100C40008032002AF5D04FF0E022126922F0010232
:100C50004FF0E0231A6100229A61704702000020E1
:100C60001CB523A103C9CDE900016846FFF71DFBB0
:100C700007464FF4A060FFF7C3FCA820FFF76AFF08
:100C8000FFF7F6FBFFF73AFC4FF4E13000F03AF8DB
:100C900000242BE04FF4FA60FFF77AFF1648008833
:100CA00098B100250CE01DF805101448FFF749FF26
:100CB00000BF80211148FFF779FE0128F9D16D1C92
:100CC000BD42F0DB00200C4908800B48008868B961
:100CD000FFF7B0FB2646E11704EB91718910A4EBF6
:100CE0008100074A0021FFF7ADFB641CD2E700003A
:100CF00048656C6C6F2100000A0000200010014064
:100D00003C02002010B588B0044601210846FFF7D8
:100D100083FC01211020FFF78FFC072209212248C4
:100D2000FFF761FB07220A211F48FFF75CFB4FF426
:100D3000C060069002208DF81C008DF81D00002078
:100D40008DF81E0001208DF81F0006A91648FFF738
:100D500002FB02940020ADF80C00ADF80E00ADF8D7
:100D60001000ADF814000C20ADF8120002A90F48D5
:100D7000FFF778FE01210D48FFF70CFE012240F23B
:100D800025510A48FFF749FE25208DF8040003206D
:100D90008DF805008DF8060001208DF8070001A8E8
:100DA000FFF7F2FB08B010BD000002400010014048
:100DB0004FF04070E1EE100A70470000DC0D0008B3
:100DC000000000203C020000C4010008680F000879
:100DD0003C0200202C07000020020008A14A010666
:100DE0002C02030404002511060708098081828370
:100DF00084858687909192939495969788898A8B1B
:100E00008C8D8E8F98999A9B9C9D9E9F521E8307D6
:100E1000F0437F805B180C5D3B01FF1032201513FF
:100E20001003FE4403FFC0325840093F301FFFC08B
:100E300003FFE0148C03F028087FE07C01E003FF4F
:100E40004A15013606C03F5FC0FFFC600110150265
:100E50001B0F8016FF01FE0F303AEF101A6D891636
:100E60003E03FFF19033FFF81C0436FE6A1507FFBE
:100E7000FC901BEFFF721C04DB7E6A1587FFFCD021
:100E80001B0FFF7214046DFC2F07FF8FFFFE501025
:100E90001AE0303BFC10105A90101B1BF8102DCF9D
:100EA000FFFE801012F02B040F101CFFFFFADA393E
:100EB000106B07F010190612F82D0203F020102213
:100EC000BA3DFDFFFFFC102603FFFFDFB815C1C0D0
:100ED0003FFC1D0101E0402A23DFB01D81C03FCE51
:100EE0000613E0801D7FFFDFA00A24801DCF234171
:100EF000E11C3FFF9BEA1683801FC7802321E21C71
:100F00001FFDB61012C3140EE6801B19EC7A33FED7
:100F10002012C3140767401A07F643033E12021B50
:100F200003E747290A428E12066303834B0203102C
:100F30001307034008774674248006041A1C121114
:100F4000665545545780121C220E774545745780CC
:100F5000082A1C201C447480635122385D77764730
:080F6000543051921000000012
:040000050800018965
:00000001FF
