:020000040800F2
:100000005809002069020008F1040008AB03000849
:10001000ED04000811030008C707000800000000F5
:1000200000000000000000000000000015050008AE
:100030001503000800000000F3040008750600081E
:10004000830200088302000883020008830200087C
:10005000830200088302000883020008830200086C
:10006000830200088302000883020008830200085C
:10007000830200088302000883020008830200084C
:10008000830200088302000883020008830200083C
:10009000830200088302000883020008830200082C
:1000A000830200088302000883020008830200081C
:1000B000830200088302000883020008830200080C
:1000C00083020008830200088302000883020008FC
:1000D00083020008E106000883020008830200088A
:1000E00083020008830200088302000883020008DC
:1000F00083020008830200088302000883020008CC
:1001000083020008830200088302000883020008BB
:1001100083020008830200088302000883020008AB
:10012000830200088302000883020008830200089B
:10013000830200088302000883020008830200088B
:10014000830200088302000883020008830200087B
:10015000830200088302000883020008830200086B
:10016000830200088302000883020008830200085B
:10017000830200088302000883020008830200084B
:10018000830200088302000800F002F800F05CF827
:100190000AA090E8000C82448344AAF10107DA45E2
:1001A00001D100F051F8AFF2090EBAE80F0013F0D8
:1001B000010F18BFFB1A43F001031847F4080000B1
:1001C000140900000A444FF0000C10F8013B13F032
:1001D000070408BF10F8014B1D1108BF10F8015BA0
:1001E000641E05D010F8016B641E01F8016BF9D193
:1001F00013F0080F1EBF10F8014BAD1C0C1B09D1EA
:100200006D1E58BF01F801CBFAD505E014F8016B5B
:1002100001F8016B6D1EF9D59142D6D370470000ED
:100220000023002400250026103A28BF78C1FBD8FF
:10023000520728BF30C148BF0B6070471FB500F0A0
:1002400031FC1FBD10B510BD00F033F81146FFF7AB
:10025000F5FF00F043FB00F051F803B4FFF7F2FFA5
:1002600003BC00F0B2FA0000094880470948004783
:10027000FEE7FEE7FEE7FEE7FEE7FEE7FEE7FEE756
:10028000FEE7FEE704480549054A064B70470000B3
:100290007906000889010008580300205809002049
:1002A0005805002058050020704770477047704778
:1002B0007047754600F028F8AE460500694653467B
:1002C00020F00700854618B020B5FFF7DBFFBDE83A
:1002D00020404FF000064FF000074FF000084FF0AD
:1002E000000B21F00701AC46ACE8C009ACE8C0093E
:1002F000ACE8C009ACE8C0098D4670470446AFF3CE
:1003000000802046FFF7A9FF00487047F402002054
:1003100000BFFEE77047F0B50A4600210023002425
:1003200000BF3DE0012505FA01F3156805EA030465
:100330009C4234D105684F000326BE40B54305609A
:1003400015794E00B5400668354305601579012DD5
:1003500002D01579022D16D185684F000326BE40C4
:10036000B543856055794E00B54086683543856054
:10037000456801268E40B5434560456896798E40B4
:10038000B6B235434560C5684F000326BE40B5434D
:10039000C560D5794E00B540C6683543C560491C77
:1003A0001029BFD3F0BD4183704700BFFEE70000B6
:1003B00070B505460E461446074901EBC501885D38
:1003C00000F072F803E0207800F07FF8641C2078D9
:1003D0000028F8DC70BD00000A0000201CB50121D7
:1003E000602000F087F80220009001208DF80400C2
:1003F00000208DF8060003208DF8050001208DF8FF
:10040000070069461348FFF786FF02211148FFF7EE
:10041000CAFF4FF44040009001208DF804000020F6
:100420008DF8060003208DF8050001208DF80700E7
:1004300069460948FFF76FFF4FF440410648FFF750
:10044000B2FF0120054908600549C1F8BC02054911
:1004500008601CBD001802400014024084024342A0
:1004600000804242B882424210B5322000F0CEF9FC
:10047000302000F019F8012000F0C8F9302000F019
:1004800013F8012000F0C2F90C2000F00DF8012053
:1004900000F0BCF9012000F007F81E2000F0B6F9CA
:1004A000062000F001F810BD10B50446012000F050
:1004B000ADF9F82000F030F804F0F00000F02CF86E
:1004C0002107080E00F028F810BD10B504460120E1
:1004D00000F09CF9FA2000F01FF804F0F00000F0A2
:1004E0001BF82107080E00F017F810BD00BFFEE74B
:1004F0007047704729B1064A12680243044B1A60DC
:1005000004E0034A12688243014B1A6070470000FE
:10051000303802407047000070B50546002418E0EE
:1005200005FA04F000F0800018B101200A490860C3
:1005300002E000200849086000200749091F086000
:10054000052000F07FF901200449C1F8B802601CC1
:10055000C4B2082CE4DB70BDBC824242008042423F
:100560000CB50020019000903448006840F48030C1
:100570003249086000BF3148006800F40030009044
:100580000198401C0190009818B90198B0F5A04F4F
:10059000F1D12A48006800F4003010B10120009029
:1005A00001E0002000900098012846D12348403007
:1005B000006840F0805021494031086020480068C0
:1005C00040F440401E4908601C48083000681B4940
:1005D000083108600846006840F40040086008469A
:1005E000006840F4A05008601648091F0860081F02
:1005F000006840F08070091F086000BF0F48006865
:1006000000F000700028F9D040F205700E49086033
:100610000A480830006820F00300084908310860E3
:100620000846006840F00200086000BF0348083038
:10063000006800F00C000828F8D10CBD003802401A
:100640000070004008544007003C0240042808D1D4
:100650004FF0E021096941F004014FF0E0221161FF
:1006600007E04FF0E021096921F004014FF0E0229A
:10067000116170477047000010B51548006840F4DC
:100680007000134908601348006840F001001149E8
:10069000086000200F49083108600E4800680E49C4
:1006A00008400C4908600D48091D0860081F0068D3
:1006B00020F48020091F0860002006490C310860E2
:1006C000FFF74EFF4FF0006001498039086010BD10
:1006D00088ED00E000380240FFFFF6FE10300024F5
:1006E00010B540F225511D4800F03EF810B31B48EC
:1006F00000F064F8C4B21A48008800F40040C8B999
:100700001748008800F4804060B10A2C03D0002014
:100710001349088020E01248008840F40040104946
:10072000088019E00D2C06D10D48008840F4804067
:100730000B49088010E00A480088C0F30D00094901
:100740000C5407480088401C05490880084600886A
:10075000C72801DD0020088010BD00000010014006
:10076000080000202C02002070B50246002400235F
:100770000025002040F66A16B14200D100BFC1F347
:10078000421501F01F03012606FA03F3012D02D1E1
:100790009689334006E0022D02D1168A334001E0EB
:1007A000968A33400C12012606FA04F41688344067
:1007B00013B10CB1012000E0002070BD0146888813
:1007C000C0F30800704700BFFEE7014600BF704756
:1007D00010B504466FF00400FFF738FFE11704EB93
:1007E0005171C1F3C701074A11701046007800EB40
:1007F0004001C1EBC0104FF6FF7101EAC000024991
:10080000088010BD000000200200002070B50446E2
:100810004FF4077094FBF0F0C6B24FF4077094FBEE
:10082000F0F100FB114085B205E04FF4077000F0D5
:100830002FF8701EC6B2002EF7D115B1284600F071
:1008400027F870BD0146114A12784A434FF0E02361
:100850005A6100229A611A46126942F001021A6135
:1008600000BF4FF0E022106900F001021AB100F45D
:100870008032002AF5D04FF0E022126922F0010206
:100880004FF0E0231A6100229A61704700000020B7
:100890000146114A12884A434FF0E0235A61002270
:1008A0009A611A46126942F001021A6100BF4FF0C4
:1008B000E022106900F001021AB100F48032002A2F
:1008C000F5D04FF0E022126922F001024FF0E02350
:1008D0001A6100229A61704702000020A820FFF7E9
:1008E00077FFFFF77BFDFFF7BFFD9FE050A20021E0
:1008F0000846FFF75DFD4FA201210020FFF758FDDC
:100900004DA202210020FFF753FD4CA2032100203D
:10091000FFF74EFD4AA204210020FFF749FD49A23E
:1009200005210020FFF744FD47A206210020FFF724
:100930003FFD46A207210020FFF73AFD44A2002117
:100940000120FFF735FD43A201210846FFF730FDE6
:1009500041A202210120FFF72BFD3BA20321012030
:10096000FFF726FD3DA204210120FFF721FD3CA257
:1009700005210120FFF71CFD3AA206210120FFF707
:1009800017FD39A207210120FFF712FD37A2002130
:100990000220FFF70DFD36A201210220FFF708FD1E
:1009A0002EA202210846FFF703FD32A203210220F6
:1009B000FFF7FEFC25A204210220FFF7F9FC2EA27E
:1009C00005210220FFF7F4FC2CA206210220FFF7EC
:1009D000EFFC2BA207210220FFF7EAFC29A200214D
:1009E0000320FFF7E5FC28A201210320FFF7E0FC2C
:1009F00026A202210320FFF7DBFC25A203210846E3
:100A0000FFF7D6FC23A204210320FFF7D1FC22A28A
:100A100005210320FFF7CCFC20A206210320FFF7CD
:100A2000C7FC1FA207210320FFF7C2FC5EE70000FE
:100A3000C4E30000CBB50000B5C30000B6D400008D
:100A4000A3AC0000B5AB0000CAC70000B4F30000BF
:100A5000CEED0000CAB50000D1E90000D2BB000015
:100A6000BFEE0000B7A20000C9FA0000D4DA00000F
:100A7000A1B60000BDCC0000C2BD0000A1B70000BF
:100A8000B5C40000C8AB0000D0C20000BFAA00007F
:100A9000B7C50000CAC00000BDE70000D3CE00000B
:100AA000CFB700004FF04070E1EE100A7047000031
:100AB000D00A0008000000202C020000C401000839
:100AC000500C00082C0200202C0700002002000817
:100AD000A1002111808182838485868790919293E1
:100AE0009495969788898A8B8C8D8E8F98999A9BEE
:100AF0009C9D9E9F521E8307F0437F8023180C42CB
:100B0000013B01FF10322015131003FE4403FFC008
:100B1000325840093F301FFFC003FFE0148C03F040
:100B200028087FE07C01E003FF4A15013606C03F3C
:100B30005FC0FFFC60011015021B0F8016FF01FE55
:100B40000F303AEF101A6D89163E03FFF19033FF14
:100B5000F81C0436FE6A1507FFFC901BEFFF721CA1
:100B600004DB7E6A1587FFFCD01B0FFF7214046D37
:100B7000FC2F07FF8FFFFE50101AE0303BFC1010D7
:100B80005A90101B1BF8102DCFFFFE801012F02B77
:100B9000040F101CFFFFFADA39106B07F01019066A
:100BA00012F82D0203F0201022BA3DFDFFFFFC10C9
:100BB0002603FFFFDFB815C1C03FFC1D0101E04067
:100BC0002A23DFB01D81C03FCE0613E0801D7FFFCA
:100BD000DFA00A24801DCF2341E11C3FFF9BEA16C2
:100BE00083801FC7802321E21C1FFDB61012C3148F
:100BF0000EE6801B19EC7A33FE2012C314076740FF
:100C00001A07F643033E12021B03E747290A428EE6
:100C100012066303834B0203101307034008774651
:100C200074248006041A1C1211665545545780120C
:100C30001C220E774545745780082A1C201C4474DA
:100C400080635122385D777647543051B2100000EE
:040000050800018965
:00000001FF
